{
  "_format": "hh-sol-artifact-1",
  "contractName": "VotingApp",
  "sourceName": "contracts/Voting.sol",
  "abi": [
    {
      "anonymous": false,
      "inputs": [
        {
          "indexed": false,
          "internalType": "bytes32",
          "name": "pollId",
          "type": "bytes32"
        },
        {
          "indexed": false,
          "internalType": "string",
          "name": "title",
          "type": "string"
        },
        {
          "indexed": false,
          "internalType": "string",
          "name": "description",
          "type": "string"
        },
        {
          "indexed": false,
          "internalType": "uint256",
          "name": "endTime",
          "type": "uint256"
        }
      ],
      "name": "PollCreated",
      "type": "event"
    },
    {
      "anonymous": false,
      "inputs": [
        {
          "indexed": false,
          "internalType": "bytes32",
          "name": "pollId",
          "type": "bytes32"
        },
        {
          "indexed": false,
          "internalType": "uint256",
          "name": "yesVotes",
          "type": "uint256"
        },
        {
          "indexed": false,
          "internalType": "uint256",
          "name": "noVotes",
          "type": "uint256"
        }
      ],
      "name": "PollEnded",
      "type": "event"
    },
    {
      "anonymous": false,
      "inputs": [
        {
          "indexed": false,
          "internalType": "bytes32",
          "name": "pollId",
          "type": "bytes32"
        },
        {
          "indexed": false,
          "internalType": "address",
          "name": "voter",
          "type": "address"
        },
        {
          "indexed": false,
          "internalType": "bool",
          "name": "vote",
          "type": "bool"
        }
      ],
      "name": "Voted",
      "type": "event"
    },
    {
      "inputs": [
        {
          "internalType": "bytes32",
          "name": "pollId",
          "type": "bytes32"
        },
        {
          "internalType": "string",
          "name": "title",
          "type": "string"
        },
        {
          "internalType": "string",
          "name": "description",
          "type": "string"
        },
        {
          "internalType": "uint256",
          "name": "durationInSeconds",
          "type": "uint256"
        }
      ],
      "name": "createPoll",
      "outputs": [],
      "stateMutability": "nonpayable",
      "type": "function"
    },
    {
      "inputs": [
        {
          "internalType": "bytes32",
          "name": "pollId",
          "type": "bytes32"
        }
      ],
      "name": "endPoll",
      "outputs": [],
      "stateMutability": "nonpayable",
      "type": "function"
    },
    {
      "inputs": [
        {
          "internalType": "uint256",
          "name": "",
          "type": "uint256"
        }
      ],
      "name": "endedPolls",
      "outputs": [
        {
          "internalType": "bytes32",
          "name": "",
          "type": "bytes32"
        }
      ],
      "stateMutability": "view",
      "type": "function"
    },
    {
      "inputs": [],
      "name": "getEndedPolls",
      "outputs": [
        {
          "internalType": "bytes32[]",
          "name": "",
          "type": "bytes32[]"
        }
      ],
      "stateMutability": "view",
      "type": "function"
    },
    {
      "inputs": [
        {
          "internalType": "bytes32",
          "name": "",
          "type": "bytes32"
        }
      ],
      "name": "polls",
      "outputs": [
        {
          "internalType": "string",
          "name": "title",
          "type": "string"
        },
        {
          "internalType": "string",
          "name": "description",
          "type": "string"
        },
        {
          "internalType": "uint256",
          "name": "endTime",
          "type": "uint256"
        },
        {
          "internalType": "bool",
          "name": "ended",
          "type": "bool"
        },
        {
          "internalType": "uint256",
          "name": "yesVotes",
          "type": "uint256"
        },
        {
          "internalType": "uint256",
          "name": "noVotes",
          "type": "uint256"
        }
      ],
      "stateMutability": "view",
      "type": "function"
    },
    {
      "inputs": [
        {
          "internalType": "bytes32",
          "name": "pollId",
          "type": "bytes32"
        },
        {
          "internalType": "bool",
          "name": "voteOption",
          "type": "bool"
        }
      ],
      "name": "vote",
      "outputs": [],
      "stateMutability": "nonpayable",
      "type": "function"
    }
  ],
  "bytecode": "0x608060405234801561001057600080fd5b5061146c806100206000396000f3fe608060405234801561001057600080fd5b50600436106100625760003560e01c806355458f4a146100675780635684048e1461009c5780639969f120146100b85780639f2ce678146100e8578063c3b8801d14610104578063e0dce4f714610122575b600080fd5b610081600480360381019061007c9190610820565b61013e565b60405161009396959493929190610911565b60405180910390f35b6100b660048036038101906100b19190610ae1565b610297565b005b6100d260048036038101906100cd9190610b80565b610407565b6040516100df9190610bbc565b60405180910390f35b61010260048036038101906100fd9190610c03565b61042b565b005b61010c610642565b6040516101199190610d01565b60405180910390f35b61013c60048036038101906101379190610820565b61069a565b005b600060205280600052604060002060009150905080600001805461016190610d52565b80601f016020809104026020016040519081016040528092919081815260200182805461018d90610d52565b80156101da5780601f106101af576101008083540402835291602001916101da565b820191906000526020600020905b8154815290600101906020018083116101bd57829003601f168201915b5050505050908060010180546101ef90610d52565b80601f016020809104026020016040519081016040528092919081815260200182805461021b90610d52565b80156102685780601f1061023d57610100808354040283529160200191610268565b820191906000526020600020905b81548152906001019060200180831161024b57829003601f168201915b5050505050908060020154908060030160009054906101000a900460ff16908060040154908060050154905086565b600080600086815260200190815260200160002060020154146102ef576040517f08c379a00000000000000000000000000000000000000000000000000000000081526004016102e690610dcf565b60405180910390fd5b600081426102fd9190610e1e565b90508360008087815260200190815260200160002060000190816103219190610ffe565b508260008087815260200190815260200160002060010190816103449190610ffe565b508060008087815260200190815260200160002060020181905550600080600087815260200190815260200160002060030160006101000a81548160ff0219169083151502179055506000806000878152602001908152602001600020600401819055506000806000878152602001908152602001600020600501819055507f4d0c23cb08c97642007e508516d9481af3bb78a6d48f28106a718a6a7a9d00eb858585846040516103f894939291906110d0565b60405180910390a15050505050565b6001818154811061041757600080fd5b906000526020600020016000915090505481565b600080600084815260200190815260200160002090508060030160009054906101000a900460ff1615610493576040517f08c379a000000000000000000000000000000000000000000000000000000000815260040161048a9061116f565b60405180910390fd5b428160020154116104d9576040517f08c379a00000000000000000000000000000000000000000000000000000000081526004016104d0906111db565b60405180910390fd5b8060060160003373ffffffffffffffffffffffffffffffffffffffff1673ffffffffffffffffffffffffffffffffffffffff16815260200190815260200160002060009054906101000a900460ff1615610568576040517f08c379a000000000000000000000000000000000000000000000000000000000815260040161055f90611247565b60405180910390fd5b811561058d5780600401600081548092919061058390611267565b91905055506105a8565b8060050160008154809291906105a290611267565b91905055505b60018160060160003373ffffffffffffffffffffffffffffffffffffffff1673ffffffffffffffffffffffffffffffffffffffff16815260200190815260200160002060006101000a81548160ff0219169083151502179055507f16efd9a5766ad43ca179f5ef58b8748c48ddedd2dd2a228460465bfa90d4d069833384604051610635939291906112f0565b60405180910390a1505050565b6060600180548060200260200160405190810160405280929190818152602001828054801561069057602002820191906000526020600020905b81548152602001906001019080831161067c575b5050505050905090565b600080600083815260200190815260200160002090508060030160009054906101000a900460ff1615610702576040517f08c379a00000000000000000000000000000000000000000000000000000000081526004016106f990611373565b60405180910390fd5b4281600201541115610749576040517f08c379a0000000000000000000000000000000000000000000000000000000008152600401610740906113df565b60405180910390fd5b60018160030160006101000a81548160ff02191690831515021790555060018290806001815401808255809150506001900390600052602060002001600090919091909150557f59cd25be190d3bc811b833e407a41df9eae097fe6d4b6ef4268b8de1e5b973c582826004015483600501546040516107ca939291906113ff565b60405180910390a15050565b6000604051905090565b600080fd5b600080fd5b6000819050919050565b6107fd816107ea565b811461080857600080fd5b50565b60008135905061081a816107f4565b92915050565b600060208284031215610836576108356107e0565b5b60006108448482850161080b565b91505092915050565b600081519050919050565b600082825260208201905092915050565b60005b8381101561088757808201518184015260208101905061086c565b60008484015250505050565b6000601f19601f8301169050919050565b60006108af8261084d565b6108b98185610858565b93506108c9818560208601610869565b6108d281610893565b840191505092915050565b6000819050919050565b6108f0816108dd565b82525050565b60008115159050919050565b61090b816108f6565b82525050565b600060c082019050818103600083015261092b81896108a4565b9050818103602083015261093f81886108a4565b905061094e60408301876108e7565b61095b6060830186610902565b61096860808301856108e7565b61097560a08301846108e7565b979650505050505050565b600080fd5b600080fd5b7f4e487b7100000000000000000000000000000000000000000000000000000000600052604160045260246000fd5b6109c282610893565b810181811067ffffffffffffffff821117156109e1576109e061098a565b5b80604052505050565b60006109f46107d6565b9050610a0082826109b9565b919050565b600067ffffffffffffffff821115610a2057610a1f61098a565b5b610a2982610893565b9050602081019050919050565b82818337600083830152505050565b6000610a58610a5384610a05565b6109ea565b905082815260208101848484011115610a7457610a73610985565b5b610a7f848285610a36565b509392505050565b600082601f830112610a9c57610a9b610980565b5b8135610aac848260208601610a45565b91505092915050565b610abe816108dd565b8114610ac957600080fd5b50565b600081359050610adb81610ab5565b92915050565b60008060008060808587031215610afb57610afa6107e0565b5b6000610b098782880161080b565b945050602085013567ffffffffffffffff811115610b2a57610b296107e5565b5b610b3687828801610a87565b935050604085013567ffffffffffffffff811115610b5757610b566107e5565b5b610b6387828801610a87565b9250506060610b7487828801610acc565b91505092959194509250565b600060208284031215610b9657610b956107e0565b5b6000610ba484828501610acc565b91505092915050565b610bb6816107ea565b82525050565b6000602082019050610bd16000830184610bad565b92915050565b610be0816108f6565b8114610beb57600080fd5b50565b600081359050610bfd81610bd7565b92915050565b60008060408385031215610c1a57610c196107e0565b5b6000610c288582860161080b565b9250506020610c3985828601610bee565b9150509250929050565b600081519050919050565b600082825260208201905092915050565b6000819050602082019050919050565b610c78816107ea565b82525050565b6000610c8a8383610c6f565b60208301905092915050565b6000602082019050919050565b6000610cae82610c43565b610cb88185610c4e565b9350610cc383610c5f565b8060005b83811015610cf4578151610cdb8882610c7e565b9750610ce683610c96565b925050600181019050610cc7565b5085935050505092915050565b60006020820190508181036000830152610d1b8184610ca3565b905092915050565b7f4e487b7100000000000000000000000000000000000000000000000000000000600052602260045260246000fd5b60006002820490506001821680610d6a57607f821691505b602082108103610d7d57610d7c610d23565b5b50919050565b7f506f6c6c20494420616c72656164792065786973747300000000000000000000600082015250565b6000610db9601683610858565b9150610dc482610d83565b602082019050919050565b60006020820190508181036000830152610de881610dac565b9050919050565b7f4e487b7100000000000000000000000000000000000000000000000000000000600052601160045260246000fd5b6000610e29826108dd565b9150610e34836108dd565b9250828201905080821115610e4c57610e4b610def565b5b92915050565b60008190508160005260206000209050919050565b60006020601f8301049050919050565b600082821b905092915050565b600060088302610eb47fffffffffffffffffffffffffffffffffffffffffffffffffffffffffffffffff82610e77565b610ebe8683610e77565b95508019841693508086168417925050509392505050565b6000819050919050565b6000610efb610ef6610ef1846108dd565b610ed6565b6108dd565b9050919050565b6000819050919050565b610f1583610ee0565b610f29610f2182610f02565b848454610e84565b825550505050565b600090565b610f3e610f31565b610f49818484610f0c565b505050565b5b81811015610f6d57610f62600082610f36565b600181019050610f4f565b5050565b601f821115610fb257610f8381610e52565b610f8c84610e67565b81016020851015610f9b578190505b610faf610fa785610e67565b830182610f4e565b50505b505050565b600082821c905092915050565b6000610fd560001984600802610fb7565b1980831691505092915050565b6000610fee8383610fc4565b9150826002028217905092915050565b6110078261084d565b67ffffffffffffffff8111156110205761101f61098a565b5b61102a8254610d52565b611035828285610f71565b600060209050601f8311600181146110685760008415611056578287015190505b6110608582610fe2565b8655506110c8565b601f19841661107686610e52565b60005b8281101561109e57848901518255600182019150602085019450602081019050611079565b868310156110bb57848901516110b7601f891682610fc4565b8355505b6001600288020188555050505b505050505050565b60006080820190506110e56000830187610bad565b81810360208301526110f781866108a4565b9050818103604083015261110b81856108a4565b905061111a60608301846108e7565b95945050505050565b7f506f6c6c2068617320656e646564000000000000000000000000000000000000600082015250565b6000611159600e83610858565b915061116482611123565b602082019050919050565b600060208201905081810360008301526111888161114c565b9050919050565b7f506f6c6c20686173206578706972656400000000000000000000000000000000600082015250565b60006111c5601083610858565b91506111d08261118f565b602082019050919050565b600060208201905081810360008301526111f4816111b8565b9050919050565b7f416c726561647920766f74656400000000000000000000000000000000000000600082015250565b6000611231600d83610858565b915061123c826111fb565b602082019050919050565b6000602082019050818103600083015261126081611224565b9050919050565b6000611272826108dd565b91507fffffffffffffffffffffffffffffffffffffffffffffffffffffffffffffffff82036112a4576112a3610def565b5b600182019050919050565b600073ffffffffffffffffffffffffffffffffffffffff82169050919050565b60006112da826112af565b9050919050565b6112ea816112cf565b82525050565b60006060820190506113056000830186610bad565b61131260208301856112e1565b61131f6040830184610902565b949350505050565b7f506f6c6c20616c726561647920656e6465640000000000000000000000000000600082015250565b600061135d601283610858565b915061136882611327565b602082019050919050565b6000602082019050818103600083015261138c81611350565b9050919050565b7f506f6c6c20686173206e6f7420656e6465642079657400000000000000000000600082015250565b60006113c9601683610858565b91506113d482611393565b602082019050919050565b600060208201905081810360008301526113f8816113bc565b9050919050565b60006060820190506114146000830186610bad565b61142160208301856108e7565b61142e60408301846108e7565b94935050505056fea264697066735822122091b4dc7508fcc8d96fb942a9f57e7b1815797367719ab57ce235b8f4ff805c6164736f6c63430008130033",
  "linkReferences": {},
  "deployedLinkReferences": {}
}